{
  "_format": "hh-sol-artifact-1",
  "contractName": "MerkleDistro",
  "sourceName": "contracts/Distributors/MerkleDistro.sol",
  "abi": [
    {
      "anonymous": false,
      "inputs": [
        {
          "indexed": false,
          "internalType": "uint256",
          "name": "index",
          "type": "uint256"
        },
        {
          "indexed": false,
          "internalType": "address",
          "name": "account",
          "type": "address"
        },
        {
          "indexed": false,
          "internalType": "address",
          "name": "recipient",
          "type": "address"
        },
        {
          "indexed": false,
          "internalType": "uint256",
          "name": "amount",
          "type": "uint256"
        }
      ],
      "name": "Claimed",
      "type": "event"
    },
    {
      "anonymous": false,
      "inputs": [
        {
          "indexed": true,
          "internalType": "address",
          "name": "previousOwner",
          "type": "address"
        },
        {
          "indexed": true,
          "internalType": "address",
          "name": "newOwner",
          "type": "address"
        }
      ],
      "name": "OwnershipTransferred",
      "type": "event"
    },
    {
      "inputs": [
        {
          "internalType": "uint256",
          "name": "index",
          "type": "uint256"
        },
        {
          "internalType": "uint256",
          "name": "amount",
          "type": "uint256"
        },
        {
          "internalType": "bytes32[]",
          "name": "merkleProof",
          "type": "bytes32[]"
        }
      ],
      "name": "claim",
      "outputs": [],
      "stateMutability": "nonpayable",
      "type": "function"
    },
    {
      "inputs": [
        {
          "internalType": "uint256",
          "name": "index",
          "type": "uint256"
        },
        {
          "internalType": "address",
          "name": "account",
          "type": "address"
        },
        {
          "internalType": "address",
          "name": "recipient",
          "type": "address"
        },
        {
          "internalType": "uint256",
          "name": "amount",
          "type": "uint256"
        },
        {
          "internalType": "bytes32[]",
          "name": "merkleProof",
          "type": "bytes32[]"
        }
      ],
      "name": "claimTo",
      "outputs": [],
      "stateMutability": "nonpayable",
      "type": "function"
    },
    {
      "inputs": [
        {
          "internalType": "contract IDistro",
          "name": "_tokenDistro",
          "type": "address"
        },
        {
          "internalType": "bytes32",
          "name": "_merkleRoot",
          "type": "bytes32"
        }
      ],
      "name": "initialize",
      "outputs": [],
      "stateMutability": "nonpayable",
      "type": "function"
    },
    {
      "inputs": [
        {
          "internalType": "uint256",
          "name": "index",
          "type": "uint256"
        }
      ],
      "name": "isClaimed",
      "outputs": [
        {
          "internalType": "bool",
          "name": "",
          "type": "bool"
        }
      ],
      "stateMutability": "view",
      "type": "function"
    },
    {
      "inputs": [],
      "name": "merkleRoot",
      "outputs": [
        {
          "internalType": "bytes32",
          "name": "",
          "type": "bytes32"
        }
      ],
      "stateMutability": "view",
      "type": "function"
    },
    {
      "inputs": [],
      "name": "owner",
      "outputs": [
        {
          "internalType": "address",
          "name": "",
          "type": "address"
        }
      ],
      "stateMutability": "view",
      "type": "function"
    },
    {
      "inputs": [],
      "name": "renounceOwnership",
      "outputs": [],
      "stateMutability": "nonpayable",
      "type": "function"
    },
    {
      "inputs": [],
      "name": "tokenDistro",
      "outputs": [
        {
          "internalType": "contract IDistro",
          "name": "",
          "type": "address"
        }
      ],
      "stateMutability": "view",
      "type": "function"
    },
    {
      "inputs": [
        {
          "internalType": "address",
          "name": "newOwner",
          "type": "address"
        }
      ],
      "name": "transferOwnership",
      "outputs": [],
      "stateMutability": "nonpayable",
      "type": "function"
    }
  ],
  "bytecode": "0x608060405234801561001057600080fd5b5061122f806100206000396000f3fe608060405234801561001057600080fd5b50600436106100a35760003560e01c80639e34070f11610076578063be13f47c1161005b578063be13f47c14610156578063ca8af4d414610169578063f2fde38b1461018957600080fd5b80639e34070f14610120578063ae0b51df1461014357600080fd5b8063054d5e2a146100a85780632eb4a7ab146100bd578063715018a6146100d95780638da5cb5b146100e1575b600080fd5b6100bb6100b6366004611022565b61019c565b005b6100c660665481565b6040519081526020015b60405180910390f35b6100bb6104df565b60335473ffffffffffffffffffffffffffffffffffffffff165b60405173ffffffffffffffffffffffffffffffffffffffff90911681526020016100d0565b61013361012e366004611009565b61056c565b60405190151581526020016100d0565b6100bb61015136600461109e565b6105ad565b6100bb610164366004610fdd565b61084e565b6065546100fb9073ffffffffffffffffffffffffffffffffffffffff1681565b6100bb610197366004610fb9565b6109b3565b60335473ffffffffffffffffffffffffffffffffffffffff163314610222576040517f08c379a000000000000000000000000000000000000000000000000000000000815260206004820181905260248201527f4f776e61626c653a2063616c6c6572206973206e6f7420746865206f776e657260448201526064015b60405180910390fd5b61022b8661056c565b156102b8576040517f08c379a000000000000000000000000000000000000000000000000000000000815260206004820152602960248201527f4d65726b6c6544697374726f3a3a636c61696d2044726f7020616c726561647960448201527f20636c61696d65642e00000000000000000000000000000000000000000000006064820152608401610219565b60408051602081018890527fffffffffffffffffffffffffffffffffffffffff000000000000000000000000606088901b169181019190915260548101849052600090607401604051602081830303815290604052805190602001209050610357838380806020026020016040519081016040528093929190818152602001838360200280828437600092019190915250506066549150849050610ae3565b6103e3576040517f08c379a000000000000000000000000000000000000000000000000000000000815260206004820152602260248201527f4d65726b6c6544697374726f3a3a636c61696d20496e76616c69642070726f6f60448201527f662e0000000000000000000000000000000000000000000000000000000000006064820152608401610219565b6103ec87610b92565b6065546040517fb78b52df00000000000000000000000000000000000000000000000000000000815273ffffffffffffffffffffffffffffffffffffffff8781166004830152602482018790529091169063b78b52df90604401600060405180830381600087803b15801561046057600080fd5b505af1158015610474573d6000803e3d6000fd5b5050604080518a815273ffffffffffffffffffffffffffffffffffffffff8a811660208301528916818301526060810188905290517fce3bcb6e219596cf26007ffdfaae8953bc3f76e3f36c0a79b23e28020da3222e9350908190036080019150a150505050505050565b60335473ffffffffffffffffffffffffffffffffffffffff163314610560576040517f08c379a000000000000000000000000000000000000000000000000000000000815260206004820181905260248201527f4f776e61626c653a2063616c6c6572206973206e6f7420746865206f776e65726044820152606401610219565b61056a6000610bd0565b565b60008061057b610100846110f1565b9050600061058b61010085611165565b60009283526067602052604090922054600190921b9182169091149392505050565b6105b68461056c565b15610643576040517f08c379a000000000000000000000000000000000000000000000000000000000815260206004820152602960248201527f4d65726b6c6544697374726f3a3a636c61696d2044726f7020616c726561647960448201527f20636c61696d65642e00000000000000000000000000000000000000000000006064820152608401610219565b60408051602081018690527fffffffffffffffffffffffffffffffffffffffff0000000000000000000000003360601b1691810191909152605481018490526000906074016040516020818303038152906040528051906020012090506106e1838380806020026020016040519081016040528093929190818152602001838360200280828437600092019190915250506066549150849050610ae3565b61076d576040517f08c379a000000000000000000000000000000000000000000000000000000000815260206004820152602260248201527f4d65726b6c6544697374726f3a3a636c61696d20496e76616c69642070726f6f60448201527f662e0000000000000000000000000000000000000000000000000000000000006064820152608401610219565b61077685610b92565b6065546040517fb78b52df0000000000000000000000000000000000000000000000000000000081523360048201526024810186905273ffffffffffffffffffffffffffffffffffffffff9091169063b78b52df90604401600060405180830381600087803b1580156107e857600080fd5b505af11580156107fc573d6000803e3d6000fd5b5050604080518881523360208201819052818301526060810188905290517fce3bcb6e219596cf26007ffdfaae8953bc3f76e3f36c0a79b23e28020da3222e9350908190036080019150a15050505050565b600054610100900460ff1680610867575060005460ff16155b6108f3576040517f08c379a000000000000000000000000000000000000000000000000000000000815260206004820152602e60248201527f496e697469616c697a61626c653a20636f6e747261637420697320616c72656160448201527f647920696e697469616c697a65640000000000000000000000000000000000006064820152608401610219565b600054610100900460ff1615801561093257600080547fffffffffffffffffffffffffffffffffffffffffffffffffffffffffffff0000166101011790555b61093a610c47565b606580547fffffffffffffffffffffffff00000000000000000000000000000000000000001673ffffffffffffffffffffffffffffffffffffffff8516179055606682905580156109ae57600080547fffffffffffffffffffffffffffffffffffffffffffffffffffffffffffff00ff1690555b505050565b60335473ffffffffffffffffffffffffffffffffffffffff163314610a34576040517f08c379a000000000000000000000000000000000000000000000000000000000815260206004820181905260248201527f4f776e61626c653a2063616c6c6572206973206e6f7420746865206f776e65726044820152606401610219565b73ffffffffffffffffffffffffffffffffffffffff8116610ad7576040517f08c379a000000000000000000000000000000000000000000000000000000000815260206004820152602660248201527f4f776e61626c653a206e6577206f776e657220697320746865207a65726f206160448201527f64647265737300000000000000000000000000000000000000000000000000006064820152608401610219565b610ae081610bd0565b50565b600081815b8551811015610b87576000868281518110610b0557610b056111a8565b60200260200101519050808311610b47576040805160208101859052908101829052606001604051602081830303815290604052805190602001209250610b74565b60408051602081018390529081018490526060016040516020818303038152906040528051906020012092505b5080610b7f81611105565b915050610ae8565b509092149392505050565b6000610ba0610100836110f1565b90506000610bb061010084611165565b6000928352606760205260409092208054600190931b9092179091555050565b6033805473ffffffffffffffffffffffffffffffffffffffff8381167fffffffffffffffffffffffff0000000000000000000000000000000000000000831681179093556040519116919082907f8be0079c531659141344cd1fd0a4f28419497f9722a3daafe3b4186f6b6457e090600090a35050565b600054610100900460ff1680610c60575060005460ff16155b610cec576040517f08c379a000000000000000000000000000000000000000000000000000000000815260206004820152602e60248201527f496e697469616c697a61626c653a20636f6e747261637420697320616c72656160448201527f647920696e697469616c697a65640000000000000000000000000000000000006064820152608401610219565b600054610100900460ff16158015610d2b57600080547fffffffffffffffffffffffffffffffffffffffffffffffffffffffffffff0000166101011790555b610d33610d6c565b610d3b610e80565b8015610ae057600080547fffffffffffffffffffffffffffffffffffffffffffffffffffffffffffff00ff16905550565b600054610100900460ff1680610d85575060005460ff16155b610e11576040517f08c379a000000000000000000000000000000000000000000000000000000000815260206004820152602e60248201527f496e697469616c697a61626c653a20636f6e747261637420697320616c72656160448201527f647920696e697469616c697a65640000000000000000000000000000000000006064820152608401610219565b600054610100900460ff16158015610d3b57600080547fffffffffffffffffffffffffffffffffffffffffffffffffffffffffffff0000166101011790558015610ae057600080547fffffffffffffffffffffffffffffffffffffffffffffffffffffffffffff00ff16905550565b600054610100900460ff1680610e99575060005460ff16155b610f25576040517f08c379a000000000000000000000000000000000000000000000000000000000815260206004820152602e60248201527f496e697469616c697a61626c653a20636f6e747261637420697320616c72656160448201527f647920696e697469616c697a65640000000000000000000000000000000000006064820152608401610219565b600054610100900460ff16158015610f6457600080547fffffffffffffffffffffffffffffffffffffffffffffffffffffffffffff0000166101011790555b610d3b33610bd0565b60008083601f840112610f7f57600080fd5b50813567ffffffffffffffff811115610f9757600080fd5b6020830191508360208260051b8501011115610fb257600080fd5b9250929050565b600060208284031215610fcb57600080fd5b8135610fd6816111d7565b9392505050565b60008060408385031215610ff057600080fd5b8235610ffb816111d7565b946020939093013593505050565b60006020828403121561101b57600080fd5b5035919050565b60008060008060008060a0878903121561103b57600080fd5b86359550602087013561104d816111d7565b9450604087013561105d816111d7565b935060608701359250608087013567ffffffffffffffff81111561108057600080fd5b61108c89828a01610f6d565b979a9699509497509295939492505050565b600080600080606085870312156110b457600080fd5b8435935060208501359250604085013567ffffffffffffffff8111156110d957600080fd5b6110e587828801610f6d565b95989497509550505050565b60008261110057611100611179565b500490565b60007fffffffffffffffffffffffffffffffffffffffffffffffffffffffffffffffff82141561115e577f4e487b7100000000000000000000000000000000000000000000000000000000600052601160045260246000fd5b5060010190565b60008261117457611174611179565b500690565b7f4e487b7100000000000000000000000000000000000000000000000000000000600052601260045260246000fd5b7f4e487b7100000000000000000000000000000000000000000000000000000000600052603260045260246000fd5b73ffffffffffffffffffffffffffffffffffffffff81168114610ae057600080fdfea2646970667358221220f334301959eb36fd3dc471154186bbe522d4d3dd10c9b6119b4c39b718891ff764736f6c63430008060033",
  "linkReferences": {},
  "deployedLinkReferences": {}
}