{
  "_format": "hh-sol-artifact-1",
  "contractName": "TokenDistro",
  "sourceName": "contracts/TokenDistro/TokenDistro.sol",
  "abi": [
    {
      "anonymous": false,
      "inputs": [
        {
          "indexed": true,
          "internalType": "address",
          "name": "distributor",
          "type": "address"
        },
        {
          "indexed": true,
          "internalType": "address",
          "name": "grantee",
          "type": "address"
        },
        {
          "indexed": false,
          "internalType": "uint256",
          "name": "amount",
          "type": "uint256"
        }
      ],
      "name": "Allocate",
      "type": "event"
    },
    {
      "anonymous": false,
      "inputs": [
        {
          "indexed": true,
          "internalType": "address",
          "name": "admin",
          "type": "address"
        },
        {
          "indexed": true,
          "internalType": "address",
          "name": "distributor",
          "type": "address"
        },
        {
          "indexed": false,
          "internalType": "uint256",
          "name": "amount",
          "type": "uint256"
        }
      ],
      "name": "Assign",
      "type": "event"
    },
    {
      "anonymous": false,
      "inputs": [
        {
          "indexed": true,
          "internalType": "address",
          "name": "oldAddress",
          "type": "address"
        },
        {
          "indexed": true,
          "internalType": "address",
          "name": "newAddress",
          "type": "address"
        }
      ],
      "name": "ChangeAddress",
      "type": "event"
    },
    {
      "anonymous": false,
      "inputs": [
        {
          "indexed": true,
          "internalType": "address",
          "name": "grantee",
          "type": "address"
        },
        {
          "indexed": false,
          "internalType": "uint256",
          "name": "amount",
          "type": "uint256"
        }
      ],
      "name": "Claim",
      "type": "event"
    },
    {
      "anonymous": false,
      "inputs": [
        {
          "indexed": true,
          "internalType": "bytes32",
          "name": "role",
          "type": "bytes32"
        },
        {
          "indexed": true,
          "internalType": "bytes32",
          "name": "previousAdminRole",
          "type": "bytes32"
        },
        {
          "indexed": true,
          "internalType": "bytes32",
          "name": "newAdminRole",
          "type": "bytes32"
        }
      ],
      "name": "RoleAdminChanged",
      "type": "event"
    },
    {
      "anonymous": false,
      "inputs": [
        {
          "indexed": true,
          "internalType": "bytes32",
          "name": "role",
          "type": "bytes32"
        },
        {
          "indexed": true,
          "internalType": "address",
          "name": "account",
          "type": "address"
        },
        {
          "indexed": true,
          "internalType": "address",
          "name": "sender",
          "type": "address"
        }
      ],
      "name": "RoleGranted",
      "type": "event"
    },
    {
      "anonymous": false,
      "inputs": [
        {
          "indexed": true,
          "internalType": "bytes32",
          "name": "role",
          "type": "bytes32"
        },
        {
          "indexed": true,
          "internalType": "address",
          "name": "account",
          "type": "address"
        },
        {
          "indexed": true,
          "internalType": "address",
          "name": "sender",
          "type": "address"
        }
      ],
      "name": "RoleRevoked",
      "type": "event"
    },
    {
      "anonymous": false,
      "inputs": [
        {
          "indexed": false,
          "internalType": "uint256",
          "name": "newStartTime",
          "type": "uint256"
        },
        {
          "indexed": false,
          "internalType": "uint256",
          "name": "newCliffTime",
          "type": "uint256"
        }
      ],
      "name": "StartTimeChanged",
      "type": "event"
    },
    {
      "inputs": [],
      "name": "DEFAULT_ADMIN_ROLE",
      "outputs": [
        {
          "internalType": "bytes32",
          "name": "",
          "type": "bytes32"
        }
      ],
      "stateMutability": "view",
      "type": "function"
    },
    {
      "inputs": [],
      "name": "DISTRIBUTOR_ROLE",
      "outputs": [
        {
          "internalType": "bytes32",
          "name": "",
          "type": "bytes32"
        }
      ],
      "stateMutability": "view",
      "type": "function"
    },
    {
      "inputs": [
        {
          "internalType": "address",
          "name": "recipient",
          "type": "address"
        },
        {
          "internalType": "uint256",
          "name": "amount",
          "type": "uint256"
        }
      ],
      "name": "allocate",
      "outputs": [],
      "stateMutability": "nonpayable",
      "type": "function"
    },
    {
      "inputs": [
        {
          "internalType": "address",
          "name": "distributor",
          "type": "address"
        },
        {
          "internalType": "uint256",
          "name": "amount",
          "type": "uint256"
        }
      ],
      "name": "assign",
      "outputs": [],
      "stateMutability": "nonpayable",
      "type": "function"
    },
    {
      "inputs": [
        {
          "internalType": "address",
          "name": "",
          "type": "address"
        }
      ],
      "name": "balances",
      "outputs": [
        {
          "internalType": "uint256",
          "name": "allocatedTokens",
          "type": "uint256"
        },
        {
          "internalType": "uint256",
          "name": "claimed",
          "type": "uint256"
        }
      ],
      "stateMutability": "view",
      "type": "function"
    },
    {
      "inputs": [
        {
          "internalType": "address",
          "name": "prevRecipient",
          "type": "address"
        },
        {
          "internalType": "address",
          "name": "newRecipient",
          "type": "address"
        }
      ],
      "name": "cancelAllocation",
      "outputs": [],
      "stateMutability": "nonpayable",
      "type": "function"
    },
    {
      "inputs": [],
      "name": "cancelable",
      "outputs": [
        {
          "internalType": "bool",
          "name": "",
          "type": "bool"
        }
      ],
      "stateMutability": "view",
      "type": "function"
    },
    {
      "inputs": [
        {
          "internalType": "address",
          "name": "newAddress",
          "type": "address"
        }
      ],
      "name": "changeAddress",
      "outputs": [],
      "stateMutability": "nonpayable",
      "type": "function"
    },
    {
      "inputs": [],
      "name": "claim",
      "outputs": [],
      "stateMutability": "nonpayable",
      "type": "function"
    },
    {
      "inputs": [
        {
          "internalType": "address",
          "name": "recipient",
          "type": "address"
        },
        {
          "internalType": "uint256",
          "name": "timestamp",
          "type": "uint256"
        }
      ],
      "name": "claimableAt",
      "outputs": [
        {
          "internalType": "uint256",
          "name": "",
          "type": "uint256"
        }
      ],
      "stateMutability": "view",
      "type": "function"
    },
    {
      "inputs": [
        {
          "internalType": "address",
          "name": "recipient",
          "type": "address"
        }
      ],
      "name": "claimableNow",
      "outputs": [
        {
          "internalType": "uint256",
          "name": "",
          "type": "uint256"
        }
      ],
      "stateMutability": "view",
      "type": "function"
    },
    {
      "inputs": [],
      "name": "cliffTime",
      "outputs": [
        {
          "internalType": "uint256",
          "name": "",
          "type": "uint256"
        }
      ],
      "stateMutability": "view",
      "type": "function"
    },
    {
      "inputs": [],
      "name": "duration",
      "outputs": [
        {
          "internalType": "uint256",
          "name": "",
          "type": "uint256"
        }
      ],
      "stateMutability": "view",
      "type": "function"
    },
    {
      "inputs": [
        {
          "internalType": "bytes32",
          "name": "role",
          "type": "bytes32"
        }
      ],
      "name": "getRoleAdmin",
      "outputs": [
        {
          "internalType": "bytes32",
          "name": "",
          "type": "bytes32"
        }
      ],
      "stateMutability": "view",
      "type": "function"
    },
    {
      "inputs": [
        {
          "internalType": "bytes32",
          "name": "role",
          "type": "bytes32"
        },
        {
          "internalType": "uint256",
          "name": "index",
          "type": "uint256"
        }
      ],
      "name": "getRoleMember",
      "outputs": [
        {
          "internalType": "address",
          "name": "",
          "type": "address"
        }
      ],
      "stateMutability": "view",
      "type": "function"
    },
    {
      "inputs": [
        {
          "internalType": "bytes32",
          "name": "role",
          "type": "bytes32"
        }
      ],
      "name": "getRoleMemberCount",
      "outputs": [
        {
          "internalType": "uint256",
          "name": "",
          "type": "uint256"
        }
      ],
      "stateMutability": "view",
      "type": "function"
    },
    {
      "inputs": [],
      "name": "getTimestamp",
      "outputs": [
        {
          "internalType": "uint256",
          "name": "",
          "type": "uint256"
        }
      ],
      "stateMutability": "view",
      "type": "function"
    },
    {
      "inputs": [
        {
          "internalType": "uint256",
          "name": "timestamp",
          "type": "uint256"
        }
      ],
      "name": "globallyClaimableAt",
      "outputs": [
        {
          "internalType": "uint256",
          "name": "",
          "type": "uint256"
        }
      ],
      "stateMutability": "view",
      "type": "function"
    },
    {
      "inputs": [
        {
          "internalType": "bytes32",
          "name": "role",
          "type": "bytes32"
        },
        {
          "internalType": "address",
          "name": "account",
          "type": "address"
        }
      ],
      "name": "grantRole",
      "outputs": [],
      "stateMutability": "nonpayable",
      "type": "function"
    },
    {
      "inputs": [
        {
          "internalType": "bytes32",
          "name": "role",
          "type": "bytes32"
        },
        {
          "internalType": "address",
          "name": "account",
          "type": "address"
        }
      ],
      "name": "hasRole",
      "outputs": [
        {
          "internalType": "bool",
          "name": "",
          "type": "bool"
        }
      ],
      "stateMutability": "view",
      "type": "function"
    },
    {
      "inputs": [],
      "name": "initialAmount",
      "outputs": [
        {
          "internalType": "uint256",
          "name": "",
          "type": "uint256"
        }
      ],
      "stateMutability": "view",
      "type": "function"
    },
    {
      "inputs": [
        {
          "internalType": "uint256",
          "name": "_totalTokens",
          "type": "uint256"
        },
        {
          "internalType": "uint256",
          "name": "_startTime",
          "type": "uint256"
        },
        {
          "internalType": "uint256",
          "name": "_cliffPeriod",
          "type": "uint256"
        },
        {
          "internalType": "uint256",
          "name": "_duration",
          "type": "uint256"
        },
        {
          "internalType": "uint256",
          "name": "_initialPercentage",
          "type": "uint256"
        },
        {
          "internalType": "contract IERC20Upgradeable",
          "name": "_token",
          "type": "address"
        },
        {
          "internalType": "bool",
          "name": "_cancelable",
          "type": "bool"
        }
      ],
      "name": "initialize",
      "outputs": [],
      "stateMutability": "nonpayable",
      "type": "function"
    },
    {
      "inputs": [],
      "name": "lockedAmount",
      "outputs": [
        {
          "internalType": "uint256",
          "name": "",
          "type": "uint256"
        }
      ],
      "stateMutability": "view",
      "type": "function"
    },
    {
      "inputs": [
        {
          "internalType": "bytes32",
          "name": "role",
          "type": "bytes32"
        },
        {
          "internalType": "address",
          "name": "account",
          "type": "address"
        }
      ],
      "name": "renounceRole",
      "outputs": [],
      "stateMutability": "nonpayable",
      "type": "function"
    },
    {
      "inputs": [
        {
          "internalType": "bytes32",
          "name": "role",
          "type": "bytes32"
        },
        {
          "internalType": "address",
          "name": "account",
          "type": "address"
        }
      ],
      "name": "revokeRole",
      "outputs": [],
      "stateMutability": "nonpayable",
      "type": "function"
    },
    {
      "inputs": [
        {
          "internalType": "uint256",
          "name": "newStartTime",
          "type": "uint256"
        }
      ],
      "name": "setStartTime",
      "outputs": [],
      "stateMutability": "nonpayable",
      "type": "function"
    },
    {
      "inputs": [],
      "name": "startTime",
      "outputs": [
        {
          "internalType": "uint256",
          "name": "",
          "type": "uint256"
        }
      ],
      "stateMutability": "view",
      "type": "function"
    },
    {
      "inputs": [
        {
          "internalType": "bytes4",
          "name": "interfaceId",
          "type": "bytes4"
        }
      ],
      "name": "supportsInterface",
      "outputs": [
        {
          "internalType": "bool",
          "name": "",
          "type": "bool"
        }
      ],
      "stateMutability": "view",
      "type": "function"
    },
    {
      "inputs": [],
      "name": "token",
      "outputs": [
        {
          "internalType": "contract IERC20Upgradeable",
          "name": "",
          "type": "address"
        }
      ],
      "stateMutability": "view",
      "type": "function"
    },
    {
      "inputs": [],
      "name": "totalTokens",
      "outputs": [
        {
          "internalType": "uint256",
          "name": "",
          "type": "uint256"
        }
      ],
      "stateMutability": "view",
      "type": "function"
    }
  ],
  "bytecode": "0x608060405234801561001057600080fd5b50612cad806100206000396000f3fe608060405234801561001057600080fd5b50600436106101e55760003560e01c806378e979251161010f578063c7aaa8d4116100a2578063f0bd87cc11610071578063f0bd87cc1461045e578063fc0c546a14610485578063fc1ed437146104a5578063fe64d6ff146104ae57600080fd5b8063c7aaa8d414610400578063ca15c87314610413578063d547741f14610426578063eee565641461043957600080fd5b80639a78ea4a116100de5780639a78ea4a146103bf578063a217fddf146103d2578063b78b52df146103da578063be760488146103ed57600080fd5b806378e979251461032f5780637e1c0c09146103385780639010d07c1461034157806391d148541461037957600080fd5b806327e235e3116101875780634e71d92d116101565780634e71d92d146102f85780635066c893146103005780636ab28bc8146103135780636d8500db1461031c57600080fd5b806327e235e3146102835780632f2ff15d146102bf57806336568abe146102d25780633e0a322d146102e557600080fd5b80630fb5a6b4116101c35780630fb5a6b41461023e578063188ec356146102475780631e83409a1461024d578063248a9ca31461026057600080fd5b806301ffc9a7146101ea5780630661c040146102125780630f1a644414610227575b600080fd5b6101fd6101f83660046128e6565b6104c1565b60405190151581526020015b60405180910390f35b610225610220366004612804565b61051d565b005b61023060cc5481565b604051908152602001610209565b61023060cd5481565b42610230565b61022561025b3660046127e7565b61094c565b61023061026e366004612886565b60009081526065602052604090206001015490565b6102aa6102913660046127e7565b60c9602052600090815260409020805460019091015482565b60408051928352602083019190915201610209565b6102256102cd36600461289f565b610958565b6102256102e036600461289f565b61097f565b6102256102f3366004612886565b6109a1565b610225610b67565b61023061030e36600461283d565b610b72565b61023060cf5481565b61023061032a366004612886565b610d5e565b61023060cb5481565b61023060ca5481565b61035461034f3660046128c4565b610de4565b60405173ffffffffffffffffffffffffffffffffffffffff9091168152602001610209565b6101fd61038736600461289f565b600091825260656020908152604080842073ffffffffffffffffffffffffffffffffffffffff93909316845291905290205460ff1690565b6102306103cd3660046127e7565b610dfc565b610230600081565b6102256103e836600461283d565b610e08565b6102256103fb36600461283d565b611123565b61022561040e366004612928565b611366565b610230610421366004612886565b611697565b61022561043436600461289f565b6116ae565b60d0546101fd9074010000000000000000000000000000000000000000900460ff1681565b6102307ffbd454f36a7e1a388bd6fc3ab10d434aa4578f811acbbcf33afb1c697486313c81565b60d0546103549073ffffffffffffffffffffffffffffffffffffffff1681565b61023060ce5481565b6102256104bc3660046127e7565b6116b8565b60007fffffffff0000000000000000000000000000000000000000000000000000000082167f5a05180f000000000000000000000000000000000000000000000000000000001480610517575061051782611924565b92915050565b60d05474010000000000000000000000000000000000000000900460ff166105cc576040517f08c379a000000000000000000000000000000000000000000000000000000000815260206004820152602d60248201527f546f6b656e44697374726f3a3a63616e63656c416c6c6f636174696f6e3a204e60448201527f4f545f43414e43454c41424c450000000000000000000000000000000000000060648201526084015b60405180910390fd5b3360009081527fffdfc1249c027f9191656349feb0761381bb32c9f557e01f419fd08754bf5a1b602052604090205460ff1661068a576040517f08c379a000000000000000000000000000000000000000000000000000000000815260206004820152602e60248201527f546f6b656e44697374726f3a3a63616e63656c416c6c6f636174696f6e3a204f60448201527f4e4c595f41444d494e5f524f4c4500000000000000000000000000000000000060648201526084016105c3565b73ffffffffffffffffffffffffffffffffffffffff8116600090815260c960205260409020541580156106e3575073ffffffffffffffffffffffffffffffffffffffff8116600090815260c96020526040902060010154155b61076f576040517f08c379a000000000000000000000000000000000000000000000000000000000815260206004820152603560248201527f546f6b656e44697374726f3a3a63616e63656c416c6c6f636174696f6e3a204160448201527f4444524553535f414c52454144595f494e5f555345000000000000000000000060648201526084016105c3565b73ffffffffffffffffffffffffffffffffffffffff821660009081527fc30845577a48a4875916abdf69c952cec0f19aac3292d053136a35224608de0b602052604090205460ff16158015610809575073ffffffffffffffffffffffffffffffffffffffff811660009081527fc30845577a48a4875916abdf69c952cec0f19aac3292d053136a35224608de0b602052604090205460ff16155b6108bb576040517f08c379a000000000000000000000000000000000000000000000000000000000815260206004820152604360248201527f546f6b656e44697374726f3a3a63616e63656c416c6c6f636174696f6e3a204460448201527f49535452494255544f525f524f4c455f4e4f545f415f56414c49445f4144445260648201527f4553530000000000000000000000000000000000000000000000000000000000608482015260a4016105c3565b60006108c683610dfc565b11156108d5576108d5826119bb565b73ffffffffffffffffffffffffffffffffffffffff808316600081815260c96020526040808220805494861680845282842095865583825560019182018054929096019190915583835293829055517f8839b4e99cbac9b99de60313e9f1679f46d6837a692b8c052bf0bd6cacb19c799190a35050565b610955816119bb565b50565b6109628282611b1c565b600082815260976020526040902061097a9082611b42565b505050565b6109898282611b64565b600082815260976020526040902061097a9082611c17565b3360009081527fffdfc1249c027f9191656349feb0761381bb32c9f557e01f419fd08754bf5a1b602052604090205460ff16610a5e576040517f08c379a0000000000000000000000000000000000000000000000000000000008152602060048201526024808201527f546f6b656e44697374726f3a3a61737369676e3a204f4e4c595f41444d494e5f60448201527f524f4c450000000000000000000000000000000000000000000000000000000060648201526084016105c3565b4260cb54118015610a6e57504281115b610afa576040517f08c379a000000000000000000000000000000000000000000000000000000000815260206004820152602b60248201527f546f6b656e44697374726f3a3a61737369676e3a2049465f4841535f4e4f545f60448201527f535441525445445f59455400000000000000000000000000000000000000000060648201526084016105c3565b600060cb5460cc54610b0c9190612b0f565b60cb8390559050610b1d8183612a7f565b60cc81905560cb546040517fbefe8e3983c0dc663c4ba451fc82d4ff7eb2e4ccc4b944874abea1ecc841feae92610b5b928252602082015260400190565b60405180910390a15050565b610b70336119bb565b565b73ffffffffffffffffffffffffffffffffffffffff821660009081527fc30845577a48a4875916abdf69c952cec0f19aac3292d053136a35224608de0b602052604081205460ff1615610c47576040517f08c379a000000000000000000000000000000000000000000000000000000000815260206004820152603760248201527f546f6b656e44697374726f3a3a636c61696d61626c6541743a2044495354524960448201527f4255544f525f524f4c455f43414e4e4f545f434c41494d00000000000000000060648201526084016105c3565b42821015610cd7576040517f08c379a000000000000000000000000000000000000000000000000000000000815260206004820152603260248201527f546f6b656e44697374726f3a3a636c61696d61626c6541743a204e4f545f564160448201527f4c49445f504153545f54494d455354414d50000000000000000000000000000060648201526084016105c3565b60ca5473ffffffffffffffffffffffffffffffffffffffff8416600090815260c96020526040812054909190610d0c85610d5e565b610d169190612ad2565b610d209190612a97565b73ffffffffffffffffffffffffffffffffffffffff8516600090815260c96020526040902060010154909150610d569082612b0f565b949350505050565b600060cb54821015610d7257506000919050565b60cc54821015610d8457505060ce5490565b60cd5460cb54610d949190612a7f565b821115610da357505060ca5490565b600060cb5483610db39190612b0f565b905060cd5460cf5482610dc69190612ad2565b610dd09190612a97565b60ce54610ddd9190612a7f565b9392505050565b6000828152609760205260408120610ddd9083611c39565b60006105178242610b72565b3360009081527fc30845577a48a4875916abdf69c952cec0f19aac3292d053136a35224608de0b602052604090205460ff16610ec6576040517f08c379a000000000000000000000000000000000000000000000000000000000815260206004820152602c60248201527f546f6b656e44697374726f3a3a616c6c6f636174653a204f4e4c595f4449535460448201527f52494255544f525f524f4c45000000000000000000000000000000000000000060648201526084016105c3565b73ffffffffffffffffffffffffffffffffffffffff821660009081527fc30845577a48a4875916abdf69c952cec0f19aac3292d053136a35224608de0b602052604090205460ff1615610f9b576040517f08c379a000000000000000000000000000000000000000000000000000000000815260206004820152603660248201527f546f6b656e44697374726f3a3a616c6c6f636174653a2044495354524942555460448201527f4f525f4e4f545f56414c49445f524543495049454e540000000000000000000060648201526084016105c3565b33600090815260c960205260409020600101541561103b576040517f08c379a000000000000000000000000000000000000000000000000000000000815260206004820152602f60248201527f546f6b656e44697374726f3a3a616c6c6f636174653a2044495354524942555460448201527f4f525f43414e4e4f545f434c41494d000000000000000000000000000000000060648201526084016105c3565b33600090815260c96020526040902054611056908290612b0f565b33600090815260c960205260408082209290925573ffffffffffffffffffffffffffffffffffffffff841681522054611090908290612a7f565b73ffffffffffffffffffffffffffffffffffffffff8316600090815260c960205260408120919091556110c283610dfc565b11156110d1576110d1826119bb565b60405181815273ffffffffffffffffffffffffffffffffffffffff83169033907f5168bfb88d6125d4580e2b91ecb103a730312c3e8b0be9c4031a0fc794e2cd5f906020015b60405180910390a35050565b3360009081527fffdfc1249c027f9191656349feb0761381bb32c9f557e01f419fd08754bf5a1b602052604090205460ff166111e0576040517f08c379a0000000000000000000000000000000000000000000000000000000008152602060048201526024808201527f546f6b656e44697374726f3a3a61737369676e3a204f4e4c595f41444d494e5f60448201527f524f4c450000000000000000000000000000000000000000000000000000000060648201526084016105c3565b73ffffffffffffffffffffffffffffffffffffffff821660009081527fc30845577a48a4875916abdf69c952cec0f19aac3292d053136a35224608de0b602052604090205460ff166112b4576040517f08c379a000000000000000000000000000000000000000000000000000000000815260206004820152602d60248201527f546f6b656e44697374726f3a3a61737369676e3a204f4e4c595f544f5f44495360448201527f5452494255544f525f524f4c450000000000000000000000000000000000000060648201526084016105c3565b30600090815260c960205260409020546112cf908290612b0f565b30600090815260c960205260408082209290925573ffffffffffffffffffffffffffffffffffffffff841681522054611309908290612a7f565b73ffffffffffffffffffffffffffffffffffffffff8316600081815260c960205260409081902092909255905133907e7ae6a979e5d8177867f7c1ca4be1527487a2e43a444b55c3dfaee02c423544906111179085815260200190565b600054610100900460ff168061137f575060005460ff16155b61140b576040517f08c379a000000000000000000000000000000000000000000000000000000000815260206004820152602e60248201527f496e697469616c697a61626c653a20636f6e747261637420697320616c72656160448201527f647920696e697469616c697a656400000000000000000000000000000000000060648201526084016105c3565b600054610100900460ff1615801561144a57600080547fffffffffffffffffffffffffffffffffffffffffffffffffffffffffffff0000166101011790555b858510156114da576040517f08c379a000000000000000000000000000000000000000000000000000000000815260206004820152603260248201527f546f6b656e44697374726f3a3a636f6e7374727563746f723a2044555241544960448201527f4f4e5f4c4553535f5448414e5f434c494646000000000000000000000000000060648201526084016105c3565b61271084111561156c576040517f08c379a000000000000000000000000000000000000000000000000000000000815260206004820152603c60248201527f546f6b656e44697374726f3a3a636f6e7374727563746f723a20494e4954494160448201527f4c50455243454e544147455f475245415445525f5448414e5f3130300000000060648201526084016105c3565b611574611c45565b61157f600033611d7a565b600061271061158e868b612ad2565b6115989190612a97565b60d080547fffffffffffffffffffffffff00000000000000000000000000000000000000001673ffffffffffffffffffffffffffffffffffffffff871617905560cd87905560cb89905560ca8a905560ce81905590506115f88789612a7f565b60cc55611605818a612b0f565b60cf555030600090815260c96020526040902088905560d080547fffffffffffffffffffffff00ffffffffffffffffffffffffffffffffffffffff167401000000000000000000000000000000000000000084151502179055801561168d57600080547fffffffffffffffffffffffffffffffffffffffffffffffffffffffffffff00ff1690555b5050505050505050565b600081815260976020526040812061051790611d84565b6109898282611d8e565b73ffffffffffffffffffffffffffffffffffffffff8116600090815260c96020526040902054158015611711575073ffffffffffffffffffffffffffffffffffffffff8116600090815260c96020526040902060010154155b61179d576040517f08c379a000000000000000000000000000000000000000000000000000000000815260206004820152603260248201527f546f6b656e44697374726f3a3a6368616e6765416464726573733a204144445260448201527f4553535f414c52454144595f494e5f555345000000000000000000000000000060648201526084016105c3565b3360009081527fc30845577a48a4875916abdf69c952cec0f19aac3292d053136a35224608de0b602052604090205460ff16158015611821575073ffffffffffffffffffffffffffffffffffffffff811660009081527fc30845577a48a4875916abdf69c952cec0f19aac3292d053136a35224608de0b602052604090205460ff16155b6118af57604080517f08c379a00000000000000000000000000000000000000000000000000000000081526020600482015260248101919091527f546f6b656e44697374726f3a3a6368616e6765416464726573733a204449535460448201527f52494255544f525f524f4c455f4e4f545f415f56414c49445f4144445245535360648201526084016105c3565b33600081815260c96020526040808220805473ffffffffffffffffffffffffffffffffffffffff861680855283852091825584835560019283018054939092019290925584845283905590519092917f8839b4e99cbac9b99de60313e9f1679f46d6837a692b8c052bf0bd6cacb19c7991a350565b60007fffffffff0000000000000000000000000000000000000000000000000000000082167f7965db0b00000000000000000000000000000000000000000000000000000000148061051757507f01ffc9a7000000000000000000000000000000000000000000000000000000007fffffffff00000000000000000000000000000000000000000000000000000000831614610517565b60006119c682610dfc565b905060008111611a58576040517f08c379a000000000000000000000000000000000000000000000000000000000815260206004820152602f60248201527f546f6b656e44697374726f3a3a636c61696d3a204e4f545f454e4f554754485f60448201527f544f4b454e535f544f5f434c41494d000000000000000000000000000000000060648201526084016105c3565b73ffffffffffffffffffffffffffffffffffffffff8216600090815260c96020526040902060010154611a8c908290612a7f565b73ffffffffffffffffffffffffffffffffffffffff808416600090815260c9602052604090206001019190915560d054611ac891168383611db4565b8173ffffffffffffffffffffffffffffffffffffffff167f47cee97cb7acd717b3c0aa1435d004cd5b3c8c57d70dbceb4e4458bbd60e39d482604051611b1091815260200190565b60405180910390a25050565b600082815260656020526040902060010154611b388133611e41565b61097a8383611f13565b6000610ddd8373ffffffffffffffffffffffffffffffffffffffff8416612007565b73ffffffffffffffffffffffffffffffffffffffff81163314611c09576040517f08c379a000000000000000000000000000000000000000000000000000000000815260206004820152602f60248201527f416363657373436f6e74726f6c3a2063616e206f6e6c792072656e6f756e636560448201527f20726f6c657320666f722073656c66000000000000000000000000000000000060648201526084016105c3565b611c138282612056565b5050565b6000610ddd8373ffffffffffffffffffffffffffffffffffffffff8416612111565b6000610ddd8383612204565b600054610100900460ff1680611c5e575060005460ff16155b611cea576040517f08c379a000000000000000000000000000000000000000000000000000000000815260206004820152602e60248201527f496e697469616c697a61626c653a20636f6e747261637420697320616c72656160448201527f647920696e697469616c697a656400000000000000000000000000000000000060648201526084016105c3565b600054610100900460ff16158015611d2957600080547fffffffffffffffffffffffffffffffffffffffffffffffffffffffffffff0000166101011790555b611d3161222e565b611d3961222e565b611d4161222e565b611d4961222e565b801561095557600080547fffffffffffffffffffffffffffffffffffffffffffffffffffffffffffff00ff16905550565b6109628282612342565b6000610517825490565b600082815260656020526040902060010154611daa8133611e41565b61097a8383612056565b6040805173ffffffffffffffffffffffffffffffffffffffff8416602482015260448082018490528251808303909101815260649091019091526020810180517bffffffffffffffffffffffffffffffffffffffffffffffffffffffff167fa9059cbb0000000000000000000000000000000000000000000000000000000017905261097a90849061234c565b600082815260656020908152604080832073ffffffffffffffffffffffffffffffffffffffff8516845290915290205460ff16611c1357611e998173ffffffffffffffffffffffffffffffffffffffff166014612458565b611ea4836020612458565b604051602001611eb59291906129ad565b604080517fffffffffffffffffffffffffffffffffffffffffffffffffffffffffffffffe0818403018152908290527f08c379a00000000000000000000000000000000000000000000000000000000082526105c391600401612a2e565b600082815260656020908152604080832073ffffffffffffffffffffffffffffffffffffffff8516845290915290205460ff16611c1357600082815260656020908152604080832073ffffffffffffffffffffffffffffffffffffffff85168452909152902080547fffffffffffffffffffffffffffffffffffffffffffffffffffffffffffffff00166001179055611fa93390565b73ffffffffffffffffffffffffffffffffffffffff168173ffffffffffffffffffffffffffffffffffffffff16837f2f8788117e7eff1d82e926ec794901d17c78024a50270940304540a733656f0d60405160405180910390a45050565b600081815260018301602052604081205461204e57508154600181810184556000848152602080822090930184905584548482528286019093526040902091909155610517565b506000610517565b600082815260656020908152604080832073ffffffffffffffffffffffffffffffffffffffff8516845290915290205460ff1615611c1357600082815260656020908152604080832073ffffffffffffffffffffffffffffffffffffffff8516808552925280832080547fffffffffffffffffffffffffffffffffffffffffffffffffffffffffffffff0016905551339285917ff6391f5c32d9c69d2a47ea670b442974b53935d1edc7fd64eb21e047a839171b9190a45050565b600081815260018301602052604081205480156121fa576000612135600183612b0f565b855490915060009061214990600190612b0f565b90508181146121ae57600086600001828154811061216957612169612be9565b906000526020600020015490508087600001848154811061218c5761218c612be9565b6000918252602080832090910192909255918252600188019052604090208390555b85548690806121bf576121bf612bba565b600190038181906000526020600020016000905590558560010160008681526020019081526020016000206000905560019350505050610517565b6000915050610517565b600082600001828154811061221b5761221b612be9565b9060005260206000200154905092915050565b600054610100900460ff1680612247575060005460ff16155b6122d3576040517f08c379a000000000000000000000000000000000000000000000000000000000815260206004820152602e60248201527f496e697469616c697a61626c653a20636f6e747261637420697320616c72656160448201527f647920696e697469616c697a656400000000000000000000000000000000000060648201526084016105c3565b600054610100900460ff16158015611d4957600080547fffffffffffffffffffffffffffffffffffffffffffffffffffffffffffff000016610101179055801561095557600080547fffffffffffffffffffffffffffffffffffffffffffffffffffffffffffff00ff16905550565b611c138282611f13565b60006123ae826040518060400160405280602081526020017f5361666545524332303a206c6f772d6c6576656c2063616c6c206661696c65648152508573ffffffffffffffffffffffffffffffffffffffff1661269b9092919063ffffffff16565b80519091501561097a57808060200190518101906123cc9190612869565b61097a576040517f08c379a000000000000000000000000000000000000000000000000000000000815260206004820152602a60248201527f5361666545524332303a204552433230206f7065726174696f6e20646964206e60448201527f6f7420737563636565640000000000000000000000000000000000000000000060648201526084016105c3565b60606000612467836002612ad2565b612472906002612a7f565b67ffffffffffffffff81111561248a5761248a612c18565b6040519080825280601f01601f1916602001820160405280156124b4576020820181803683370190505b5090507f3000000000000000000000000000000000000000000000000000000000000000816000815181106124eb576124eb612be9565b60200101907effffffffffffffffffffffffffffffffffffffffffffffffffffffffffffff1916908160001a9053507f78000000000000000000000000000000000000000000000000000000000000008160018151811061254e5761254e612be9565b60200101907effffffffffffffffffffffffffffffffffffffffffffffffffffffffffffff1916908160001a905350600061258a846002612ad2565b612595906001612a7f565b90505b6001811115612632577f303132333435363738396162636465660000000000000000000000000000000085600f16601081106125d6576125d6612be9565b1a60f81b8282815181106125ec576125ec612be9565b60200101907effffffffffffffffffffffffffffffffffffffffffffffffffffffffffffff1916908160001a90535060049490941c9361262b81612b56565b9050612598565b508315610ddd576040517f08c379a000000000000000000000000000000000000000000000000000000000815260206004820181905260248201527f537472696e67733a20686578206c656e67746820696e73756666696369656e7460448201526064016105c3565b6060610d56848460008585843b61270e576040517f08c379a000000000000000000000000000000000000000000000000000000000815260206004820152601d60248201527f416464726573733a2063616c6c20746f206e6f6e2d636f6e747261637400000060448201526064016105c3565b6000808673ffffffffffffffffffffffffffffffffffffffff1685876040516127379190612991565b60006040518083038185875af1925050503d8060008114612774576040519150601f19603f3d011682016040523d82523d6000602084013e612779565b606091505b5091509150612789828286612794565b979650505050505050565b606083156127a3575081610ddd565b8251156127b35782518084602001fd5b816040517f08c379a00000000000000000000000000000000000000000000000000000000081526004016105c39190612a2e565b6000602082840312156127f957600080fd5b8135610ddd81612c47565b6000806040838503121561281757600080fd5b823561282281612c47565b9150602083013561283281612c47565b809150509250929050565b6000806040838503121561285057600080fd5b823561285b81612c47565b946020939093013593505050565b60006020828403121561287b57600080fd5b8151610ddd81612c69565b60006020828403121561289857600080fd5b5035919050565b600080604083850312156128b257600080fd5b82359150602083013561283281612c47565b600080604083850312156128d757600080fd5b50508035926020909101359150565b6000602082840312156128f857600080fd5b81357fffffffff0000000000000000000000000000000000000000000000000000000081168114610ddd57600080fd5b600080600080600080600060e0888a03121561294357600080fd5b873596506020880135955060408801359450606088013593506080880135925060a088013561297181612c47565b915060c088013561298181612c69565b8091505092959891949750929550565b600082516129a3818460208701612b26565b9190910192915050565b7f416363657373436f6e74726f6c3a206163636f756e74200000000000000000008152600083516129e5816017850160208801612b26565b7f206973206d697373696e6720726f6c65200000000000000000000000000000006017918401918201528351612a22816028840160208801612b26565b01602801949350505050565b6020815260008251806020840152612a4d816040850160208701612b26565b601f017fffffffffffffffffffffffffffffffffffffffffffffffffffffffffffffffe0169190910160400192915050565b60008219821115612a9257612a92612b8b565b500190565b600082612acd577f4e487b7100000000000000000000000000000000000000000000000000000000600052601260045260246000fd5b500490565b6000817fffffffffffffffffffffffffffffffffffffffffffffffffffffffffffffffff0483118215151615612b0a57612b0a612b8b565b500290565b600082821015612b2157612b21612b8b565b500390565b60005b83811015612b41578181015183820152602001612b29565b83811115612b50576000848401525b50505050565b600081612b6557612b65612b8b565b507fffffffffffffffffffffffffffffffffffffffffffffffffffffffffffffffff0190565b7f4e487b7100000000000000000000000000000000000000000000000000000000600052601160045260246000fd5b7f4e487b7100000000000000000000000000000000000000000000000000000000600052603160045260246000fd5b7f4e487b7100000000000000000000000000000000000000000000000000000000600052603260045260246000fd5b7f4e487b7100000000000000000000000000000000000000000000000000000000600052604160045260246000fd5b73ffffffffffffffffffffffffffffffffffffffff8116811461095557600080fd5b801515811461095557600080fdfea264697066735822122079044d298e9a7549ce7ee5f5e98c423b5ea56fbc405a2ef665e5cde70954138764736f6c63430008060033",
  "linkReferences": {},
  "deployedLinkReferences": {}
}