{
	"_format": "hh-sol-artifact-1",
	"contractName": "UnipoolTokenDistributor",
	"sourceName": "contracts/Distributors/UnipoolTokenDistributor.sol",
	"abi": [
		{
			"anonymous": false,
			"inputs": [
				{
					"indexed": true,
					"internalType": "address",
					"name": "previousOwner",
					"type": "address"
				},
				{
					"indexed": true,
					"internalType": "address",
					"name": "newOwner",
					"type": "address"
				}
			],
			"name": "OwnershipTransferred",
			"type": "event"
		},
		{
			"anonymous": false,
			"inputs": [
				{
					"indexed": false,
					"internalType": "uint256",
					"name": "reward",
					"type": "uint256"
				}
			],
			"name": "RewardAdded",
			"type": "event"
		},
		{
			"anonymous": false,
			"inputs": [
				{
					"indexed": true,
					"internalType": "address",
					"name": "user",
					"type": "address"
				},
				{
					"indexed": false,
					"internalType": "uint256",
					"name": "reward",
					"type": "uint256"
				}
			],
			"name": "RewardPaid",
			"type": "event"
		},
		{
			"anonymous": false,
			"inputs": [
				{
					"indexed": true,
					"internalType": "address",
					"name": "user",
					"type": "address"
				},
				{
					"indexed": false,
					"internalType": "uint256",
					"name": "amount",
					"type": "uint256"
				}
			],
			"name": "Staked",
			"type": "event"
		},
		{
			"anonymous": false,
			"inputs": [
				{
					"indexed": true,
					"internalType": "address",
					"name": "user",
					"type": "address"
				},
				{
					"indexed": false,
					"internalType": "uint256",
					"name": "amount",
					"type": "uint256"
				}
			],
			"name": "Withdrawn",
			"type": "event"
		},
		{
			"inputs": [
				{
					"internalType": "contract IERC20Upgradeable",
					"name": "_uni",
					"type": "address"
				}
			],
			"name": "__LPTokenWrapper_initialize",
			"outputs": [],
			"stateMutability": "nonpayable",
			"type": "function"
		},
		{
			"inputs": [
				{
					"internalType": "address",
					"name": "account",
					"type": "address"
				}
			],
			"name": "balanceOf",
			"outputs": [
				{
					"internalType": "uint256",
					"name": "",
					"type": "uint256"
				}
			],
			"stateMutability": "view",
			"type": "function"
		},
		{
			"inputs": [],
			"name": "duration",
			"outputs": [
				{
					"internalType": "uint256",
					"name": "",
					"type": "uint256"
				}
			],
			"stateMutability": "view",
			"type": "function"
		},
		{
			"inputs": [
				{
					"internalType": "address",
					"name": "account",
					"type": "address"
				}
			],
			"name": "earned",
			"outputs": [
				{
					"internalType": "uint256",
					"name": "",
					"type": "uint256"
				}
			],
			"stateMutability": "view",
			"type": "function"
		},
		{
			"inputs": [],
			"name": "exit",
			"outputs": [],
			"stateMutability": "nonpayable",
			"type": "function"
		},
		{
			"inputs": [],
			"name": "getReward",
			"outputs": [],
			"stateMutability": "nonpayable",
			"type": "function"
		},
		{
			"inputs": [
				{
					"internalType": "contract IDistro",
					"name": "_tokenDistribution",
					"type": "address"
				},
				{
					"internalType": "contract IERC20Upgradeable",
					"name": "_uni",
					"type": "address"
				},
				{
					"internalType": "uint256",
					"name": "_duration",
					"type": "uint256"
				}
			],
			"name": "initialize",
			"outputs": [],
			"stateMutability": "nonpayable",
			"type": "function"
		},
		{
			"inputs": [],
			"name": "lastTimeRewardApplicable",
			"outputs": [
				{
					"internalType": "uint256",
					"name": "",
					"type": "uint256"
				}
			],
			"stateMutability": "view",
			"type": "function"
		},
		{
			"inputs": [],
			"name": "lastUpdateTime",
			"outputs": [
				{
					"internalType": "uint256",
					"name": "",
					"type": "uint256"
				}
			],
			"stateMutability": "view",
			"type": "function"
		},
		{
			"inputs": [
				{
					"internalType": "uint256",
					"name": "reward",
					"type": "uint256"
				}
			],
			"name": "notifyRewardAmount",
			"outputs": [],
			"stateMutability": "nonpayable",
			"type": "function"
		},
		{
			"inputs": [],
			"name": "owner",
			"outputs": [
				{
					"internalType": "address",
					"name": "",
					"type": "address"
				}
			],
			"stateMutability": "view",
			"type": "function"
		},
		{
			"inputs": [],
			"name": "periodFinish",
			"outputs": [
				{
					"internalType": "uint256",
					"name": "",
					"type": "uint256"
				}
			],
			"stateMutability": "view",
			"type": "function"
		},
		{
			"inputs": [],
			"name": "renounceOwnership",
			"outputs": [],
			"stateMutability": "nonpayable",
			"type": "function"
		},
		{
			"inputs": [],
			"name": "rewardDistribution",
			"outputs": [
				{
					"internalType": "address",
					"name": "",
					"type": "address"
				}
			],
			"stateMutability": "view",
			"type": "function"
		},
		{
			"inputs": [],
			"name": "rewardPerToken",
			"outputs": [
				{
					"internalType": "uint256",
					"name": "",
					"type": "uint256"
				}
			],
			"stateMutability": "view",
			"type": "function"
		},
		{
			"inputs": [],
			"name": "rewardPerTokenStored",
			"outputs": [
				{
					"internalType": "uint256",
					"name": "",
					"type": "uint256"
				}
			],
			"stateMutability": "view",
			"type": "function"
		},
		{
			"inputs": [],
			"name": "rewardRate",
			"outputs": [
				{
					"internalType": "uint256",
					"name": "",
					"type": "uint256"
				}
			],
			"stateMutability": "view",
			"type": "function"
		},
		{
			"inputs": [
				{
					"internalType": "address",
					"name": "",
					"type": "address"
				}
			],
			"name": "rewards",
			"outputs": [
				{
					"internalType": "uint256",
					"name": "",
					"type": "uint256"
				}
			],
			"stateMutability": "view",
			"type": "function"
		},
		{
			"inputs": [
				{
					"internalType": "address",
					"name": "_rewardDistribution",
					"type": "address"
				}
			],
			"name": "setRewardDistribution",
			"outputs": [],
			"stateMutability": "nonpayable",
			"type": "function"
		},
		{
			"inputs": [
				{
					"internalType": "uint256",
					"name": "amount",
					"type": "uint256"
				}
			],
			"name": "stake",
			"outputs": [],
			"stateMutability": "nonpayable",
			"type": "function"
		},
		{
			"inputs": [
				{
					"internalType": "uint256",
					"name": "amount",
					"type": "uint256"
				},
				{
					"internalType": "bytes",
					"name": "permit",
					"type": "bytes"
				}
			],
			"name": "stakeWithPermit",
			"outputs": [],
			"stateMutability": "nonpayable",
			"type": "function"
		},
		{
			"inputs": [],
			"name": "tokenDistro",
			"outputs": [
				{
					"internalType": "contract IDistro",
					"name": "",
					"type": "address"
				}
			],
			"stateMutability": "view",
			"type": "function"
		},
		{
			"inputs": [],
			"name": "totalSupply",
			"outputs": [
				{
					"internalType": "uint256",
					"name": "",
					"type": "uint256"
				}
			],
			"stateMutability": "view",
			"type": "function"
		},
		{
			"inputs": [
				{
					"internalType": "address",
					"name": "newOwner",
					"type": "address"
				}
			],
			"name": "transferOwnership",
			"outputs": [],
			"stateMutability": "nonpayable",
			"type": "function"
		},
		{
			"inputs": [],
			"name": "uni",
			"outputs": [
				{
					"internalType": "contract IERC20Upgradeable",
					"name": "",
					"type": "address"
				}
			],
			"stateMutability": "view",
			"type": "function"
		},
		{
			"inputs": [
				{
					"internalType": "address",
					"name": "",
					"type": "address"
				}
			],
			"name": "userRewardPerTokenPaid",
			"outputs": [
				{
					"internalType": "uint256",
					"name": "",
					"type": "uint256"
				}
			],
			"stateMutability": "view",
			"type": "function"
		},
		{
			"inputs": [
				{
					"internalType": "uint256",
					"name": "amount",
					"type": "uint256"
				}
			],
			"name": "withdraw",
			"outputs": [],
			"stateMutability": "nonpayable",
			"type": "function"
		}
	],
	"bytecode": "0x608060405234801561001057600080fd5b5061257a806100206000396000f3fe608060405234801561001057600080fd5b50600436106101b85760003560e01c806371cc29e5116100f9578063ca8af4d411610097578063e9fad8ee11610071578063e9fad8ee146103af578063ebe2b12b146103b7578063edc9af95146103c0578063f2fde38b146103e657600080fd5b8063ca8af4d41461037e578063cd3daf9d1461039e578063df136d65146103a657600080fd5b80638b876347116100d35780638b876347146103245780638da5cb5b14610344578063a694fc3a14610362578063c8f33c911461037557600080fd5b806371cc29e5146103005780637b0a47ee1461031357806380faa57d1461031c57600080fd5b806318160ddd116101665780633d18b912116101405780633d18b912146102a7578063478f4d02146102af57806370a08231146102c2578063715018a6146102f857600080fd5b806318160ddd146102795780632e1a7d4d146102815780633c6b16ab1461029457600080fd5b80630fb5a6b4116101975780630fb5a6b414610218578063101114cf146102215780631794bb3c1461026657600080fd5b80628cc262146101bd5780630700037d146101e35780630d68b76114610203575b600080fd5b6101d06101cb36600461217c565b6103f9565b6040519081526020015b60405180910390f35b6101d06101f136600461217c565b606f6020526000908152604090205481565b61021661021136600461217c565b610492565b005b6101d060685481565b6069546102419073ffffffffffffffffffffffffffffffffffffffff1681565b60405173ffffffffffffffffffffffffffffffffffffffff90911681526020016101da565b6102166102743660046122a5565b61055f565b6001546101d0565b61021661028f3660046122e6565b6106d8565b6102166102a23660046122e6565b6107fa565b6102166109dc565b6102166102bd36600461217c565b610b37565b6101d06102d036600461217c565b73ffffffffffffffffffffffffffffffffffffffff1660009081526002602052604090205490565b610216610c92565b61021661030e3660046122ff565b610d1f565b6101d0606b5481565b6101d0610e4f565b6101d061033236600461217c565b606e6020526000908152604090205481565b60355473ffffffffffffffffffffffffffffffffffffffff16610241565b6102166103703660046122e6565b610e62565b6101d0606c5481565b6067546102419073ffffffffffffffffffffffffffffffffffffffff1681565b6101d0610f7c565b6101d0606d5481565b610216610fca565b6101d0606a5481565b6000546102419062010000900473ffffffffffffffffffffffffffffffffffffffff1681565b6102166103f436600461217c565b610feb565b73ffffffffffffffffffffffffffffffffffffffff81166000908152606f6020908152604080832054606e90925282205461048c919061048690670de0b6b3a764000090610480906104539061044d610f7c565b9061111b565b73ffffffffffffffffffffffffffffffffffffffff88166000908152600260205260409020545b9061112e565b9061113a565b90611146565b92915050565b60355473ffffffffffffffffffffffffffffffffffffffff163314610518576040517f08c379a000000000000000000000000000000000000000000000000000000000815260206004820181905260248201527f4f776e61626c653a2063616c6c6572206973206e6f7420746865206f776e657260448201526064015b60405180910390fd5b606980547fffffffffffffffffffffffff00000000000000000000000000000000000000001673ffffffffffffffffffffffffffffffffffffffff92909216919091179055565b600054610100900460ff1680610578575060005460ff16155b610604576040517f08c379a000000000000000000000000000000000000000000000000000000000815260206004820152602e60248201527f496e697469616c697a61626c653a20636f6e747261637420697320616c72656160448201527f647920696e697469616c697a6564000000000000000000000000000000000000606482015260840161050f565b600054610100900460ff1615801561064357600080547fffffffffffffffffffffffffffffffffffffffffffffffffffffffffffff0000166101011790555b61064b611152565b61065483610b37565b606780547fffffffffffffffffffffffff00000000000000000000000000000000000000001673ffffffffffffffffffffffffffffffffffffffff861617905560688290556000606a819055606b5580156106d257600080547fffffffffffffffffffffffffffffffffffffffffffffffffffffffffffff00ff1690555b50505050565b336106e1610f7c565b606d556106ec610e4f565b606c5573ffffffffffffffffffffffffffffffffffffffff81161561074d57610714816103f9565b73ffffffffffffffffffffffffffffffffffffffff82166000908152606f6020908152604080832093909355606d54606e909152919020555b600082116107b7576040517f08c379a000000000000000000000000000000000000000000000000000000000815260206004820152601160248201527f43616e6e6f742077697468647261772030000000000000000000000000000000604482015260640161050f565b6107c082611277565b60405182815233907f7084f5476618d8e60b11ef0d7d3f06914655adb8793e28ff7f018d4c76d505d5906020015b60405180910390a25050565b60695473ffffffffffffffffffffffffffffffffffffffff163373ffffffffffffffffffffffffffffffffffffffff16146108b7576040517f08c379a000000000000000000000000000000000000000000000000000000000815260206004820152602160248201527f43616c6c6572206973206e6f742072657761726420646973747269627574696f60448201527f6e00000000000000000000000000000000000000000000000000000000000000606482015260840161050f565b60006108c1610f7c565b606d556108cc610e4f565b606c5573ffffffffffffffffffffffffffffffffffffffff81161561092d576108f4816103f9565b73ffffffffffffffffffffffffffffffffffffffff82166000908152606f6020908152604080832093909355606d54606e909152919020555b606a54421061094c5760685461094490839061113a565b606b5561098f565b606a5460009061095c904261111b565b90506000610975606b548361112e90919063ffffffff16565b606854909150610989906104808684611146565b606b5550505b42606c8190556068546109a29190611146565b606a556040518281527fde88a922e0d3b88b24e9623efeb464919c6bf9f66857a65e2bfcf2ce87a9433d9060200160405180910390a15050565b336109e5610f7c565b606d556109f0610e4f565b606c5573ffffffffffffffffffffffffffffffffffffffff811615610a5157610a18816103f9565b73ffffffffffffffffffffffffffffffffffffffff82166000908152606f6020908152604080832093909355606d54606e909152919020555b6000610a5c336103f9565b90508015610b3357336000818152606f60205260408082209190915560675490517fb78b52df00000000000000000000000000000000000000000000000000000000815260048101929092526024820183905273ffffffffffffffffffffffffffffffffffffffff169063b78b52df90604401600060405180830381600087803b158015610ae957600080fd5b505af1158015610afd573d6000803e3d6000fd5b50506040518381523392507fe2403640ba68fed3a2f88b7557551d1993f84b99bb10ff833f0cf8db0c5e048691506020016107ee565b5050565b600054610100900460ff1680610b50575060005460ff16155b610bdc576040517f08c379a000000000000000000000000000000000000000000000000000000000815260206004820152602e60248201527f496e697469616c697a61626c653a20636f6e747261637420697320616c72656160448201527f647920696e697469616c697a6564000000000000000000000000000000000000606482015260840161050f565b600054610100900460ff16158015610c1b57600080547fffffffffffffffffffffffffffffffffffffffffffffffffffffffffffff0000166101011790555b600080547fffffffffffffffffffff0000000000000000000000000000000000000000ffff166201000073ffffffffffffffffffffffffffffffffffffffff8516021790558015610b3357600080547fffffffffffffffffffffffffffffffffffffffffffffffffffffffffffff00ff1690555050565b60355473ffffffffffffffffffffffffffffffffffffffff163314610d13576040517f08c379a000000000000000000000000000000000000000000000000000000000815260206004820181905260248201527f4f776e61626c653a2063616c6c6572206973206e6f7420746865206f776e6572604482015260640161050f565b610d1d60006112de565b565b33610d28610f7c565b606d55610d33610e4f565b606c5573ffffffffffffffffffffffffffffffffffffffff811615610d9457610d5b816103f9565b73ffffffffffffffffffffffffffffffffffffffff82166000908152606f6020908152604080832093909355606d54606e909152919020555b60008411610dfe576040517f08c379a000000000000000000000000000000000000000000000000000000000815260206004820152600e60248201527f43616e6e6f74207374616b652030000000000000000000000000000000000000604482015260640161050f565b610e09848484611355565b5050610e1484611ab3565b60405184815233907f9e71bc8eea02a63969f509818f2dafb9254532904319f9dbda79b67bd34a5f3d9060200160405180910390a250505050565b6000610e5d42606a54611b1b565b905090565b33610e6b610f7c565b606d55610e76610e4f565b606c5573ffffffffffffffffffffffffffffffffffffffff811615610ed757610e9e816103f9565b73ffffffffffffffffffffffffffffffffffffffff82166000908152606f6020908152604080832093909355606d54606e909152919020555b60008211610f41576040517f08c379a000000000000000000000000000000000000000000000000000000000815260206004820152600e60248201527f43616e6e6f74207374616b652030000000000000000000000000000000000000604482015260640161050f565b610f4a82611ab3565b60405182815233907f9e71bc8eea02a63969f509818f2dafb9254532904319f9dbda79b67bd34a5f3d906020016107ee565b6000610f8760015490565b610f925750606d5490565b610e5d610fc1610fa160015490565b610480670de0b6b3a764000061047a606b5461047a606c5461044d610e4f565b606d5490611146565b33600090815260026020526040902054610fe3906106d8565b610d1d6109dc565b60355473ffffffffffffffffffffffffffffffffffffffff16331461106c576040517f08c379a000000000000000000000000000000000000000000000000000000000815260206004820181905260248201527f4f776e61626c653a2063616c6c6572206973206e6f7420746865206f776e6572604482015260640161050f565b73ffffffffffffffffffffffffffffffffffffffff811661110f576040517f08c379a000000000000000000000000000000000000000000000000000000000815260206004820152602660248201527f4f776e61626c653a206e6577206f776e657220697320746865207a65726f206160448201527f6464726573730000000000000000000000000000000000000000000000000000606482015260840161050f565b611118816112de565b50565b600061112782846124a2565b9392505050565b60006111278284612465565b6000611127828461242a565b60006111278284612412565b600054610100900460ff168061116b575060005460ff16155b6111f7576040517f08c379a000000000000000000000000000000000000000000000000000000000815260206004820152602e60248201527f496e697469616c697a61626c653a20636f6e747261637420697320616c72656160448201527f647920696e697469616c697a6564000000000000000000000000000000000000606482015260840161050f565b600054610100900460ff1615801561123657600080547fffffffffffffffffffffffffffffffffffffffffffffffffffffffffffff0000166101011790555b61123e611b31565b611246611c45565b801561111857600080547fffffffffffffffffffffffffffffffffffffffffffffffffffffffffffff00ff16905550565b600154611284908261111b565b600155336000908152600260205260409020546112a1908261111b565b336000818152600260205260408120929092559054611118916201000090910473ffffffffffffffffffffffffffffffffffffffff169083611d32565b6035805473ffffffffffffffffffffffffffffffffffffffff8381167fffffffffffffffffffffffff0000000000000000000000000000000000000000831681179093556040519116919082907f8be0079c531659141344cd1fd0a4f28419497f9722a3daafe3b4186f6b6457e090600090a35050565b60006060600061139a85858080601f016020809104026020016040519081016040528093929190818152602001838380828437600092019190915250611e0b92505050565b90507fffffffff0000000000000000000000000000000000000000000000000000000081167fd505accf00000000000000000000000000000000000000000000000000000000141561171c5760008080808080806113fb8b6004818f6123e8565b810190611408919061221a565b96509650965096509650965096503373ffffffffffffffffffffffffffffffffffffffff168773ffffffffffffffffffffffffffffffffffffffff16146114d1576040517f08c379a000000000000000000000000000000000000000000000000000000000815260206004820152602f60248201527f556e69706f6f6c546f6b656e4469737472696275746f723a204f574e45525f4e60448201527f4f545f455155414c5f53454e4445520000000000000000000000000000000000606482015260840161050f565b73ffffffffffffffffffffffffffffffffffffffff86163014611576576040517f08c379a000000000000000000000000000000000000000000000000000000000815260206004820152602f60248201527f556e69706f6f6c546f6b656e4469737472696275746f723a205350454e44455260448201527f5f4e4f545f455155414c5f544849530000000000000000000000000000000000606482015260840161050f565b8c8514611605576040517f08c379a000000000000000000000000000000000000000000000000000000000815260206004820152602560248201527f556e69706f6f6c546f6b656e4469737472696275746f723a2057524f4e475f4160448201527f4d4f554e54000000000000000000000000000000000000000000000000000000606482015260840161050f565b6000546040805173ffffffffffffffffffffffffffffffffffffffff8a811660248301528981166044830152606482018990526084820188905260ff871660a483015260c4820186905260e48083018690528351808403909101815261010490920183526020820180517bffffffffffffffffffffffffffffffffffffffffffffffffffffffff167fd505accf00000000000000000000000000000000000000000000000000000000179052915162010000909304909116916116c8919061237b565b6000604051808303816000865af19150503d8060008114611705576040519150601f19603f3d011682016040523d82523d6000602084013e61170a565b606091505b50995099505050505050505050611aab565b7fffffffff0000000000000000000000000000000000000000000000000000000081167f8fcbaf0c000000000000000000000000000000000000000000000000000000001415611a23576000806000806000806000808c8c6004908092611785939291906123e8565b8101906117929190612199565b975097509750975097509750975097503373ffffffffffffffffffffffffffffffffffffffff168873ffffffffffffffffffffffffffffffffffffffff161461185d576040517f08c379a000000000000000000000000000000000000000000000000000000000815260206004820152602f60248201527f556e69706f6f6c546f6b656e4469737472696275746f723a204f574e45525f4e60448201527f4f545f455155414c5f53454e4445520000000000000000000000000000000000606482015260840161050f565b73ffffffffffffffffffffffffffffffffffffffff87163014611902576040517f08c379a000000000000000000000000000000000000000000000000000000000815260206004820152602f60248201527f556e69706f6f6c546f6b656e4469737472696275746f723a205350454e44455260448201527f5f4e4f545f455155414c5f544849530000000000000000000000000000000000606482015260840161050f565b6000546040805173ffffffffffffffffffffffffffffffffffffffff8b811660248301528a81166044830152606482018a90526084820189905287151560a483015260ff871660c483015260e482018690526101048083018690528351808403909101815261012490920183526020820180517bffffffffffffffffffffffffffffffffffffffffffffffffffffffff167f8fcbaf0c00000000000000000000000000000000000000000000000000000000179052915162010000909304909116916119ce919061237b565b6000604051808303816000865af19150503d8060008114611a0b576040519150601f19603f3d011682016040523d82523d6000602084013e611a10565b606091505b509a509a50505050505050505050611aab565b6040517f08c379a000000000000000000000000000000000000000000000000000000000815260206004820152603160248201527f556e69706f6f6c546f6b656e4469737472696275746f723a204e4f545f56414c60448201527f49445f43414c4c5f5349474e4154555245000000000000000000000000000000606482015260840161050f565b935093915050565b600154611ac09082611146565b60015533600090815260026020526040902054611add9082611146565b336000818152600260205260408120929092559054611118916201000090910473ffffffffffffffffffffffffffffffffffffffff16903084611e12565b6000818310611b2a5781611127565b5090919050565b600054610100900460ff1680611b4a575060005460ff16155b611bd6576040517f08c379a000000000000000000000000000000000000000000000000000000000815260206004820152602e60248201527f496e697469616c697a61626c653a20636f6e747261637420697320616c72656160448201527f647920696e697469616c697a6564000000000000000000000000000000000000606482015260840161050f565b600054610100900460ff1615801561124657600080547fffffffffffffffffffffffffffffffffffffffffffffffffffffffffffff000016610101179055801561111857600080547fffffffffffffffffffffffffffffffffffffffffffffffffffffffffffff00ff16905550565b600054610100900460ff1680611c5e575060005460ff16155b611cea576040517f08c379a000000000000000000000000000000000000000000000000000000000815260206004820152602e60248201527f496e697469616c697a61626c653a20636f6e747261637420697320616c72656160448201527f647920696e697469616c697a6564000000000000000000000000000000000000606482015260840161050f565b600054610100900460ff16158015611d2957600080547fffffffffffffffffffffffffffffffffffffffffffffffffffffffffffff0000166101011790555b611246336112de565b60405173ffffffffffffffffffffffffffffffffffffffff8316602482015260448101829052611e069084907fa9059cbb00000000000000000000000000000000000000000000000000000000906064015b604080517fffffffffffffffffffffffffffffffffffffffffffffffffffffffffffffffe08184030181529190526020810180517bffffffffffffffffffffffffffffffffffffffffffffffffffffffff167fffffffff0000000000000000000000000000000000000000000000000000000090931692909217909152611e70565b505050565b6020015190565b60405173ffffffffffffffffffffffffffffffffffffffff808516602483015283166044820152606481018290526106d29085907f23b872dd0000000000000000000000000000000000000000000000000000000090608401611d84565b6000611ed2826040518060400160405280602081526020017f5361666545524332303a206c6f772d6c6576656c2063616c6c206661696c65648152508573ffffffffffffffffffffffffffffffffffffffff16611f7c9092919063ffffffff16565b805190915015611e065780806020019051810190611ef09190612288565b611e06576040517f08c379a000000000000000000000000000000000000000000000000000000000815260206004820152602a60248201527f5361666545524332303a204552433230206f7065726174696f6e20646964206e60448201527f6f74207375636365656400000000000000000000000000000000000000000000606482015260840161050f565b6060611f8b8484600085611f93565b949350505050565b606082471015612025576040517f08c379a000000000000000000000000000000000000000000000000000000000815260206004820152602660248201527f416464726573733a20696e73756666696369656e742062616c616e636520666f60448201527f722063616c6c0000000000000000000000000000000000000000000000000000606482015260840161050f565b843b61208d576040517f08c379a000000000000000000000000000000000000000000000000000000000815260206004820152601d60248201527f416464726573733a2063616c6c20746f206e6f6e2d636f6e7472616374000000604482015260640161050f565b6000808673ffffffffffffffffffffffffffffffffffffffff1685876040516120b6919061237b565b60006040518083038185875af1925050503d80600081146120f3576040519150601f19603f3d011682016040523d82523d6000602084013e6120f8565b606091505b5091509150612108828286612113565b979650505050505050565b60608315612122575081611127565b8251156121325782518084602001fd5b816040517f08c379a000000000000000000000000000000000000000000000000000000000815260040161050f9190612397565b803560ff8116811461217757600080fd5b919050565b60006020828403121561218e57600080fd5b813561112781612514565b600080600080600080600080610100898b0312156121b657600080fd5b88356121c181612514565b975060208901356121d181612514565b9650604089013595506060890135945060808901356121ef81612536565b93506121fd60a08a01612166565b925060c0890135915060e089013590509295985092959890939650565b600080600080600080600060e0888a03121561223557600080fd5b873561224081612514565b9650602088013561225081612514565b9550604088013594506060880135935061226c60808901612166565b925060a0880135915060c0880135905092959891949750929550565b60006020828403121561229a57600080fd5b815161112781612536565b6000806000606084860312156122ba57600080fd5b83356122c581612514565b925060208401356122d581612514565b929592945050506040919091013590565b6000602082840312156122f857600080fd5b5035919050565b60008060006040848603121561231457600080fd5b83359250602084013567ffffffffffffffff8082111561233357600080fd5b818601915086601f83011261234757600080fd5b81358181111561235657600080fd5b87602082850101111561236857600080fd5b6020830194508093505050509250925092565b6000825161238d8184602087016124b9565b9190910192915050565b60208152600082518060208401526123b68160408501602087016124b9565b601f017fffffffffffffffffffffffffffffffffffffffffffffffffffffffffffffffe0169190910160400192915050565b600080858511156123f857600080fd5b8386111561240557600080fd5b5050820193919092039150565b60008219821115612425576124256124e5565b500190565b600082612460577f4e487b7100000000000000000000000000000000000000000000000000000000600052601260045260246000fd5b500490565b6000817fffffffffffffffffffffffffffffffffffffffffffffffffffffffffffffffff048311821515161561249d5761249d6124e5565b500290565b6000828210156124b4576124b46124e5565b500390565b60005b838110156124d45781810151838201526020016124bc565b838111156106d25750506000910152565b7f4e487b7100000000000000000000000000000000000000000000000000000000600052601160045260246000fd5b73ffffffffffffffffffffffffffffffffffffffff8116811461111857600080fd5b801515811461111857600080fdfea26469706673582212201bc23d050ccb8b570a68c5e13cce0389261f653658c82363009c637576d97d1164736f6c63430008060033",
	"linkReferences": {},
	"deployedLinkReferences": {}
}